:10000000F3CABFCA44CBBFCABFCABFCABFCABFCAEE
:10001000BFCAF89400C0000000000000000000000B
:1000200000000000000000000000000000000000D0
:1000300000000000000000000000000000000000C0
:1000400000000000000000000000000000000000B0
:1000500000000000000000000000000000000000A0
:1015700000000000000000000000000088C034C02F
:1015800033C058C084C056C055C054C053C052C0A8
:1015900051C050C04FC04EC04DC04CC04BC00902DE
:1015A0001200010100803209040000000000000068
:1015B00012011001FF00000881179F0C05010102B4
:1015C000000110035400720069006E006B0065009A
:1015D000740012034100640061006600720075002F
:1015E000690074000403090411241FBECFE5D2E092
:1015F000DEBFCDBF84B7877F84BF88E10FB6F89484
:1016000081BD11BC0FBE0AEA0F9310E0A0E6B0E066
:10161000E8EAFFE102C005900D92A236B107D9F7C2
:1016200011E0A2E6B0E001C01D92A832B107E1F7D7
:10163000AAD3B8C4A5CFA82FB92F80E090E041E08D
:1016400050EA609530E009C02D91822797958795E3
:1016500010F084279527305EC8F36F5FA8F30895D4
:10166000EADF8D939D930895A6E088279927AA9590
:1016700069F00197E1F3B399FCCFB39BFECF81E012
:101680009927A6B3019611F0A871D9F70895CF93C1
:10169000CFB7CF93C0915F02CA3A21F0CF91CFBFAD
:1016A000CF916CCFCC27C395B39BE9F7B39B0BC00D
:1016B000B39B09C0B39B07C0B39B05C0B39B03C0DA
:1016C000B39B01C0D3C00F92DF93C0910B01DD2704
:1016D000CE5EDE4F012EB39B03C0DF910F90E6CFAD
:1016E0002F930F931F934F932FEF4F6F06B303FB6F
:1016F00020F95F933F9350E03BE065C016B30126AD
:10170000502953FDC89556B3012703FB25F92F73C4
:1017100006B3B1F05027102713FB26F906B222308A
:10172000F0F000C016B3012703FB27F9012650296A
:1017300006B22430E8F54F77206816B30000F6CFE4
:1017400050274F7D206206B2102F000000C006B364
:1017500000265029102713FB26F906B2E2CF4F7B53
:1017600006B3206400C0DACF01265029187106B2F2
:1017700069F14E7F2160012F16B328C00026502941
:101780004D7F06B22260102F29C0012650294B7FC1
:1017900006B22460012F2DC016B301265029477FC1
:1017A0002860000006B22EC04F7E06B3206130C014
:1017B000422706B3499300265029102706B24FEF5F
:1017C00013FB20F9297F16B379F2187159F101261C
:1017D000502906B2012703FB21F9237F06B371F2DA
:1017E000002650293150D0F006B2102713FB22F901
:1017F000277E16B351F201265029012703FB06B2BA
:1018000023F92F7C49F2000006B3102713FB24F9BB
:101810000026502906B22F7939F270CF10E21ABF94
:10182000002717C03B503195C31BD04010E21ABFB0
:101830000881033CF9F00B34E9F02091090119818A
:10184000110F1213EDCF093651F10D3211F0013E97
:1018500039F7009310013F915F914F911F910F91C4
:101860002F91DF910F90CAB7C5FD1DCFCF91CFBF8C
:10187000CF91189520911001222369F310910E0148
:10188000112321F5343022F130930E0120930A0107
:1018900010910B013BE0311B30930B0119C00091FB
:1018A0000E0101309CF40AE53091600034FD11C056
:1018B00000936000CEEFD0E010C0052710E000C01C
:1018C00021C0052710E0C89508BB14C03AE501C047
:1018D00032ED032EC0E0D0E032E017B31861C39AB6
:1018E00008B317BB58E120E84FEF20FF052708BBDE
:1018F000279517951C3F28F700004552B0F720FFA9
:101900000527279508BB17951C3FB8F629913A95EE
:1019100061F7077E10910F01110F08BBC250D04034
:1019200011F01093090110E21ABF086017B3177E77
:10193000402F477E54E05A95F1F708BB17BB48BBD0
:101940008ACFCF93DF9320910E01235027FD74C1DE
:1019500030910B018CE090E0831B9109DC01AE5EBD
:10196000BE4F31E03093620040910A014D3209F0E0
:101970000DC1283009F05EC123EC2093FE002AE55A
:10198000209360001092EE002C91207609F484C020
:101990001092F0001092F2001092F100FC01ED5E46
:1019A000FE4F2081213009F471C0263009F44DC06A
:1019B000273009F048C03093670023EF30E03093C0
:1019C0000D0120930C01FC01EB5EFE4F3081309342
:1019D000F5001092F600FC01EC5EFE4F20812033F2
:1019E00089F4332309F054C08A5E9E4FEC01E881EC
:1019F000F0E0EE0FFF1F81E280935700E491E09347
:101A0000F60046C02C3A99F4303809F041C0FC0188
:101A1000EA5EFE4F20812223D9F5895E9E4FFC01AC
:101A200080818823A9F581E08093630031C02C3444
:101A300079F5895E9E4FEC018881882349F581E024
:101A40008093660025C0283019F43093670022C0C7
:101A500014968D919C91159790936C0080936B00D8
:101A600016968C9116978093FB00822F89508430B4
:101A700088F48FE788BD309368002093FC002A30FB
:101A800009F478C181E08093670074C121E070C0DF
:101A900024E06EC020E06CC012963C911297109228
:101AA000070111962C911197222331F4109208010D
:101AB00087E091E022E050C0253019F430930F0107
:101AC0003FC02630B9F5FC01EC5EFE4F20818B5EF5
:101AD0009E4FFC018081813019F480EB95E115C0A7
:101AE000823019F48EE995E110C08330F1F422239D
:101AF00041F484EE95E190930D0180930C0124E074
:101B000015C0213041F482ED95E190930D01809351
:101B10000C0122E10BC0223041F482EC95E190935C
:101B20000D0180930C0120E101C020E080E480934E
:101B3000EE001EC0283069F0293029F430931101DD
:101B400087E091E004C087E091E02A3021F020E0B6
:101B500003C081E191E021E090930D0180930C019D
:101B600007C016962C91169780E88093EE000BC064
:101B700017968C911797882331F416968C911697A7
:101B8000821708F4282F2093610054C08091EE0042
:101B900087FF50C03091FB00321708F4232F321B0F
:101BA0003093FB00109267008091FC008C3009F4A8
:101BB0003DC08A3009F03AC06A2FCA2FDB2F32C0ED
:101BC00080916B0090916C008034910568F441E045
:101BD0004093FD00FC01EE0FFF1FE359FF4F4881CA
:101BE00059815183408318C048815981A5E18D37BF
:101BF0009A07B8F481E080936A00F894E0916B0052
:101C0000F0916C000A0180935700E89511247894B4
:101C100080916B0090916C00029690936C00809381
:101C20006B0022968C2F861B821750F2332311F4FF
:101C30001092610010920E018091600084FF81C0BB
:101C4000809161008F3F09F47CC0C82F893008F073
:101C5000C8E08C1B809361008091FE0098E8892782
:101C60008093FE00CC2309F45BC08091EE0087FFD7
:101C70003BC08091FB008C1708F4C82F8C1B80930D
:101C8000FB005091FC00E0916B00F0916C0040E093
:101C90008FEF90E022C05B3009F471C05930D9F762
:101CA000E034F10570F4DF01AA0FBB1FA359BF4F49
:101CB0002D913C91DC012D933D93CD0132964E5FE9
:101CC0000CC0B5E1EC37FB0710F02FEF01C02491F9
:101CD000DC012C93019631964F5F4C17E0F2F093A4
:101CE0006C00E0936B001AC0E0910C01F0910D01C3
:101CF00086FF09C08C2FAFEFB0E094919D93319691
:101D00008150D9F707C08C2FAFEFB0E091919D9330
:101D10008150E1F7F0930D01E0930C01C93058F4C4
:101D20008FEF90E06C2F9CDCCC5FCC3041F08FEFDC
:101D30008093610004C08FEF80936100CEE1C09377
:101D4000600084E196B3987131F48150D9F7109214
:101D50000F0110920901C1E08111C0E08091EF00F4
:101D60008C1771F0CC2319F4F894E2D07894C093D6
:101D7000EF0006C08C9187FDF4CE2FEFF5CEFFCF9C
:101D8000DF91CF91089591B7E1E2F1EA3197F1F750
:101D900000C00000B399B8C0B99A83E28ABD81E05F
:101DA00083BF0AC088B5805F88BD88B5882321F4C9
:101DB0008AB590E189278ABDB39BF4CFBB988BB7D6
:101DC00080628BBFAC9A7894BCDD809163008823DD
:101DD00021F182E090E0909365008093640013C04D
:101DE000CF018F739070009721F483E080935700A8
:101DF000E895A7DD8091640090916500029690932C
:101E0000650080936400E0916400F091650025E135
:101E1000E038F20728F3109263008091660088236F
:101E200009F449C08EDD80916A00882309F43EC020
:101E300080916B0090916C00E5E181389E0708F07D
:101E400035C0F89480916B0090916C00F5E182347C
:101E50009F0710F121E080916D0090916E008F5BE3
:101E60009A409F70906CEEE7F5E10C0120935700CB
:101E7000E895112480917500909176008C5B9A40D2
:101E80009F70906CECE7F5E10C0120935700E8950A
:101E9000112478942093ED00E0916B00F0916C0098
:101EA000329785E080935700E895789410926A0005
:101EB0001092660046DD80916200882349F080918F
:101EC0006700882329F480916800882309F07CCF7B
:101ED00080916200882371F080916900882351F419
:101EE00088B5805F88BD88B5882321F48AB590E1E4
:101EF00089278ABD809169008F5F809369008EEC8D
:101F000090E00197F1F760CF10925F0217BA13BE0D
:101F10001ABC03C081B78F5F81BF81B78917D0F327
:101F200003C081B7815081BF81B79817D0F327CB09
:101F3000FF920F931F93CF93DF93C8E0D0E010E0A0
:101F400000E8F12EF00EF1BE8FDB29E0843392071A
:101F50000CF41F2D06952197A1F7212F215021BFA9
:101F6000EC01012F10C080DB8453994097FF03C020
:101F7000909581959F4F8C179D0714F401B7EC0144
:101F800081B78F5F81BF21B730E0812F90E001964C
:101F90008217930744F701BFDF91CF911F910F91F3
:081FA000FF900895F894FFCFB3
:021FA8005AFFDE
:040000030000158064
:00000001FF
